:020000040002F8
:10300000D86E0020153402001D3402001F34020067
:1030100021340200233402002534020000000000A5
:103020000000000000000000000000002734020043
:1030300029340200000000002B3402002D3402006D
:103040005D6002002F3402003596020059770200BD
:10305000A57702002F340200854102002F340200C0
:103060002F3402002F3402002F3402002F340200CC
:103070002F3402002F3402002F3402002F340200BC
:103080002F340200096702002F3402002F3402009F
:10309000B57702002F340200B97702002F34020006
:1030A0002F3402002F3402002F3402002F3402008C
:1030B0002F3402002F340200000000000000000046
:1030C0002F3402002F3402002F3402002F3402006C
:1030D0002D6702002F3402002F3402000000000090
:1030E00000000000000000000000000000000000E0
:1030F00000000000000000000000000000000000D0
:1031000000000000000000000000000000000000BF
:1031100000000000000000000000000000000000AF
:10312000000000000000000000000000000000009F
:10313000000000000000000000000000000000008F
:10314000000000000000000000000000000000007F
:10315000000000000000000000000000000000006F
:10316000000000000000000000000000000000005F
:10317000000000000000000000000000000000004F
:10318000000000000000000000000000000000003F
:10319000000000000000000000000000000000002F
:1031A000000000000000000000000000000000001F
:1031B000000000000000000000000000000000000F
:1031C00000000000000000000000000000000000FF
:1031D00000000000000000000000000000000000EF
:1031E00000000000000000000000000000000000DF
:1031F00000000000000000000000000000000000CF
:10320000DFF80CD000F038FD0048004721D602005E
:10321000D86E002030B4044654E8000F0D4644E850
:103220000053002BF8D1156030BC704730B4044611
:1032300054E8000F40EA010544E80053002BF7D1A1
:10324000156030BC704730B4044654E8000F00EA03
:10325000010544E80053002BF7D1156030BC7047DE
:1032600030B4044654E8000F80EA010544E80053F6
:10327000002BF7D1156030BC704730B4044654E8D9
:10328000000F00EB010544E80053002BF7D1156057
:1032900030BC704730B4044654E8000FA0EB010581
:1032A00044E80053002BF7D1156030BC7047000094
:1032B00030B4044654E8000F0D4644E80053002B98
:1032C000F8D1156030BC704730B4044654E8000FA4
:1032D00040EA010544E80053002BF7D1156030BCEB
:1032E000704730B4044654E8000F00EA010544E892
:1032F0000053002BF7D1156030BC704730B4044642
:1033000054E8000F80EA010544E80053002BF7D190
:10331000156030BC704730B4044654E8000F00EB31
:10332000010544E80053002BF7D1156030BC70470D
:1033300030B4044654E8000FA0EB010544E8005304
:10334000002BF7D1156030BC7047000030B450E856
:10335000012F93B2C48923448489A34228BF1B1B35
:103360000489A34202BFBFF32F8F002007E0C3EA06
:10337000020340E80134002CE9D14FF001000A605B
:1033800030BC704750E8012FC2EA024240E80121F8
:103390000029F7D1704730B450E8022F1FFAA2F38A
:1033A000C488A34202BFBFF32F8F00200DE0C48961
:1033B00023448489A34228BF1B1BC2EA034340E87D
:1033C0000234002CE8D14FF001000A6030BC704795
:1033D00050E8022FC2EA224240E802210029F7D138
:1033E0007047034653E8022FD988B2EB324F4FF0B3
:1033F000000017BF92B241EA014142EA014104E0F4
:103400005A68B2EB324F08BF012043E80212002A8B
:10341000E8D170470648804706480047FEE7FEE7C8
:10342000FEE7FEE7FEE7FEE7FEE7FEE7FEE7FEE774
:1034300099920200013202002DE9F05F054600205A
:1034400092469B4688460646814640241BE0284615
:1034500041464746224600F0F8FA53465A46C01AFB
:10346000914110D311461846224600F0DFFA2D1A7A
:1034700067EB01084F4622460120002100F0D6FAF2
:1034800017EB00094E41201EA4F10104DFDC484681
:1034900031462A464346BDE8F09FA0F16101192953
:1034A00000D82038704740EA01039B0703D009E0A9
:1034B00008C9121F08C0042AFAD203E011F8013B20
:1034C00000F8013B521EF9D27047D2B201E000F879
:1034D000012B491EFBD270470022F6E710B51346B8
:1034E0000A4604461946FFF7F0FF204610BDCAB24F
:1034F000401E10F8011F8A4202D00029F9D1002095
:103500007047421C10F8011B0029FBD1801A70473C
:1035100010B5002200E0521C835C8C5CA34201D1F8
:10352000002BF8D1D8B2E1B2401A10BD30B5044634
:103530000020034600E05B1C934203D2E05CCD5CBC
:10354000401BF8D030BD034611F8012B00F8012BC9
:10355000002AF9D11846704730B5054600200346C9
:1035600000E05B1C934205D2EC5CC85C201A01D1E0
:10357000002CF6D130BD2DE9F05F93460F46804612
:103580000446002606F0AEF8D0F80090824614F803
:10359000015B2DB100F07CFA0068405DC007F6D1F8
:1035A0002B2D02D02D2D1AD0641E0021CAF8001038
:1035B0005A463946204600F06FFA014627B138686E
:1035C000A04201D1C7F80080DAF80000022809D033
:1035D000CAF80090700505D54842BDE8F09F46F452
:1035E0008066E2E70846F8E72DE9FE4F804681EA6B
:1035F0000300C00F0C46009021F0004123F000456D
:10360000B8EB0200A94105D24046214690461C462F
:103610000B46024623F00040104347D0270DC7F366
:103620000A00C3F30A510290401A019040286BDA55
:10363000C3F3130040F4801B0098924620B100238E
:10364000D2EB030A63EB0B0B01985946C0F1400221
:10365000504600F0EBF906460D4650465946019A91
:1036600000F003FA10EB08006141002487EA1152D0
:1036700084EAE7731A4340D0009A62B3019A012AA0
:103680004FEA075215DC001B61EB02014FF00042CC
:1036900002EA0752CDE90042001C41F58011324692
:1036A0002B4600F057FA03B0BDE8F08F40462146A4
:1036B000F9E7001B61EB0201001C41F580130018C3
:1036C0005B412018A2F5001747EB030140EAD570D3
:1036D000B6196D4111E06D084FEA360645EAC0752E
:1036E0004FEA0752001B61EB0201001C41F58011FB
:1036F00049084FEA30000019514132462B4603B0C9
:10370000BDE8F04F00F017BA0098012240000023F6
:10371000D0EB020263EBE073009821464FEAE074BD
:10372000B8EB000061EB0401E9E783F000435BE7DD
:1037300081F0004158E72DE9FE4F81EA030404F0CF
:10374000004421F0004100944FF0000B23F00043AF
:1037500050EA01045ED052EA03045BD0C3F30A547A
:10376000C1F30A552C44A4F2F3340194A0FB025493
:10377000C1F3130141F48011C3F3130343F4801325
:1037800001FB024400FB034E840A970A44EA815479
:1037900047EA8357A4FB076802958D0A05FB078556
:1037A0004FEA932C04FB0C542705029D4FEA065860
:1037B00047EA1637B5EB08056EEB070C870E920E3D
:1037C00047EA811742EA8312A7FB0201B6EB0B011D
:1037D00064EB00042B0D43EA0C335E1844EB1C50E1
:1037E000DA465146E7FB0201C5F313044FEA0B33F7
:1037F00043EA14534FEA0432019C43EA0603A4F15E
:103800000C040294009CCDE900B400F0A3F903B0CD
:10381000BDE8F08F00200146F9E72DE9F04D81EA7F
:10382000030404F0004B21F0004514464FF0000A59
:1038300023F0004150EA050220D054EA01021DD0D5
:10384000C5F30A570246C5F31303C1F31300C1F3CE
:103850000A5640F4801543F48013A7EB0608101BAA
:10386000D64608F2FD3873EB050002D308F10108D3
:1038700001E092185B41B8F1000F03DA0020014625
:10388000BDE8F08D00204FF48011064684460EE01E
:10389000171B73EB050705D3121B63EB05030643E8
:1038A0004CEA010C49084FEA300092185B4150EA9B
:1038B0000107EDD152EA030012D082EA040083EA44
:1038C0000501084305D0101BAB4106D2012200239D
:1038D00006E000224FF0004302E06FF001025310B7
:1038E0001AEB06004CEB085110EB0A0041EB0B0100
:1038F000BDE8F04D00F01FB90EB5C10F80EAE070D1
:103900000844CA07002140F233438DE80E000A46FE
:103910000B4600F01FF903B000BD0EB540F2334175
:1039200002910021CDE900110A460B4600F012F980
:1039300003B000BD70B5C1F30A5201F00045002488
:10394000C1F3130140F2FF3341F480119A4201DACE
:10395000002070BD40F233439A42A2F2334203DCAE
:10396000524200F072F800E090402C43F1D0404207
:1039700070BDC1F30A5210B5C1F3130140F2FF3319
:1039800041F480119A4201DA002010BD40F2334325
:103990009A42A2F2334203DC524200F056F810BDC4
:1039A000904010BD00F0004230F000400AD0C10D40
:1039B00001F56071C0F3160042EA0151C2084007E8
:1039C00011437047002001467047000030B5041EC7
:1039D00071F1000404DB4FF00044404264EB01014C
:1039E000141E73F1000405DB1C464FF000435242E5
:1039F00063EB04038B4208BF824230BD30B5041E26
:103A000071F1000404DB4FF00044404264EB01011B
:103A1000141E73F1000405DB1C464FF000435242B4
:103A200063EB0403994208BF904230BD202A04DBB7
:103A3000203A00FA02F1002070479140C2F12003C1
:103A400020FA03F3194390407047202A04DB203A00
:103A500021FA02F00021704721FA02F3D040C2F1AE
:103A600020029140084319467047202A06DBCB17F5
:103A7000203A41FA02F043EAE07306E041FA02F329
:103A8000D040C2F12002914008431946704700001F
:103A900000487047DC3403002DE9F05F824600786F
:103AA000002715468B460AF10104B946302801D09B
:103AB0009DB113E014F8010B0127782803D0582892
:103AC00001D045B10AE00DB1102D07D10027102516
:103AD00014F8010B02E0082500E00A250026B04694
:103AE0000EE005FB080005FB06F1012701EB10467F
:103AF0001FFA80F8B6F5803F00D3B94614F8010BE1
:103B0000294600F0CBF80028EBDABBF1000F05D016
:103B10000FB1641E00E05446CBF80040B9F1000F2D
:103B200006D005F0DFFD02210160C81EBDE8F09F50
:103B300048EA0640FAE710B5141E73F1000408DAEB
:103B4000401C41F1000192185B411A4301D120F061
:103B5000010010BD2DE9F04D92469B4611B1B1FA1E
:103B600081F202E0B0FA80F220329046FFF75EFF69
:103B700004460F4640EA0A0041EA0B0153465A4602
:103B8000084313D0114653EA010019D0C8F140028E
:103B90005046FFF75AFF05460E46504659464246E4
:103BA000FFF744FF084305D0012004E020463946D2
:103BB000BDE8F08D0020054346EAE0762C4337430C
:103BC0000A986305E40AA0EB08000022FD0A44EA13
:103BD00047540A3002D500200146E9E701051019D3
:103BE0006941DDE9084500196941BDE8F04DA2E7EA
:103BF0002DE9F041054621F000400C46284309D04C
:103C0000C4F30A5040F23341884205DD284621467C
:103C1000BDE8F0812846FBE740F2FE31884210DC27
:103C20000CDB4FEA043040EA155050EA053105D06C
:103C3000104804F0004101430020E9E7002001465C
:103C4000E6E7A0F233404642C6F14002284621464C
:103C5000FFF7ECFE07468846284621463246FFF726
:103C6000F4FE43463A46FFF766FF3246BDE8F041B0
:103C7000FFF7DCBE0000F03F064C074D06E0E068B1
:103C800040F0010394E8070098471034AC42F6D3A3
:103C9000FFF7BAFAE0340300003503003A2800D2F7
:103CA000303820F02002412A01D3A2F137008842A7
:103CB00001D34FF0FF30704770B58C1810F8015BDE
:103CC00015F0070301D110F8013B2A1106D110F8B5
:103CD000012B03E010F8016B01F8016B5B1EF9D1B9
:103CE0002B0705D40023521E0DD401F8013BFAE73F
:103CF00010F8013BCB1A921C03E013F8015B01F8AA
:103D0000015B521EF9D5A142D8D3002070BD70B519
:103D100088B00C46054610220021684609F01AFDBD
:103D200069462246084606F067F99DF80000694694
:103D300000064FF000000FD50B180A5C5B785200AC
:103D400042EAD3120A54401C0F28F5DB9DF80F00FD
:103D5000400080F087000CE00B180A5C5B78520092
:103D600042EAD3120A54401C0F28F5DB9DF80F00DD
:103D700040008DF80F00D4F81401102814D09DF8DD
:103D8000000000061CD500200B180A5C5B7852006E
:103D900042EAD3120A54401C0F28F5DB9DF80F00AD
:103DA000400080F0870019E0002022180E5C92F895
:103DB0000131401C734082F801311028F5DB2AE004
:103DC00000228B18885C5B78400040EAD31088544E
:103DD000521C0F2AF5DB9DF80F0040008DF80F00F4
:103DE000D4F8146104F201128023B354002300E0DC
:103DF0008354D4F81401401CC4F814011028F7D3DC
:103E0000002022180E5C92F80131401C734082F8A9
:103E100001311028F5DB00202118401C11F8F12F8A
:103E20000B7C5A400A701028F6DB102204F1F101D5
:103E300004A809F079FC2246294604A806F0DCF81B
:103E400010220021684609F085FC08B070BD10B54D
:103E5000044610220021F13009F07CFC00200146CC
:103E6000C4F814012046BDE81040F02209F072BCED
:103E70000B4602461021184606F0E6B82DE9FF472A
:103E80000446D0F814010F46154604F2011804F157
:103E9000F10918B3C0F11006AE4200D31646B2B213
:103EA0004044394609F040FCD4F814013044C4F8C9
:103EB0001401102837D3B54235D000202118401CFA
:103EC00011F8F12F0B7C5A400A701028F6DB494696
:103ED0002246084606F090F83744AD1B1AE0002051
:103EE00021183B5C11F8F12F401C5A400A70102831
:103EF000F6DB10224946684609F016FC6946224660
:103F0000084606F079F810226946484609F00CFC8C
:103F1000103D1037102DE2D8AAB23946404609F0BC
:103F200003FCC4F81451BDE8FF8700002DE9F047F9
:103F3000224B924698465A7A0126C2F18002D7B2A5
:103F400098F8082098F809801446521CC8F1800897
:103F5000A0F1020C1A4D08F0FF08D2B2A8F1010935
:103F6000BCF1090F27D2DFE80CF0050905090E099D
:103F700005052100BC421BD2285502E04C4511DB4F
:103F800016E01A720AE0BF1EBC4211DA2855A95485
:103F9000521CD0B205F800A0401C18720026012067
:103FA000D87105E02855A954521CEAE7BC42F9D360
:103FB0003046BDE8F0870220FBE70000C82D002056
:103FC000EA39002072B602484168491C41607047D6
:103FD000642D002003494868401E486000D162B645
:103FE00070470000642D002000B50021124A00F047
:103FF00099F9F0B1508841F23601884201D3FE218F
:1040000017E0A0F68141B1F56D7F0BD8481C00EB9D
:104010004001C1EB002040F2B63190FBF1F0401CB2
:10402000C1B206E0A0F61D40632801D8012100E0DE
:10403000FF21084600BD0000642D002010B50AF0E5
:10404000B5F908B106F00CF903F006FBBDE8104025
:1040500003F058BD3EB50F4CE1788DF80010217D7E
:104060008DF802108DF80300606B05F095FA019051
:10407000E06B0290E07D8DF801006946207C02F043
:1040800088FB218CE06B4143081AA16D0844A065B0
:104090003EBD0000C82D002010B51B2007F06EFAB1
:1040A00007F000FA50B1642000F066F81B2007F01A
:1040B00065FA07F0F7F908B1002010BD182007F0E5
:1040C0005DFA07F0EFF950B1642000F055F81820C0
:1040D00007F054FA07F0E6F908B1012010BD0220FC
:1040E00010BD2DE9FF4F4FF0000B83B0924688467C
:1040F000D9465D465E460127002438F8160007FAC7
:1041000004F1084227D02819019000EB40005AF82A
:10411000201001B30AEB8000009090F90800021112
:1041200040F30301039840B202F088FD98B1009873
:10413000417A069800EB0110C06820B109F1010036
:1041400000F0FF0907E01099019801F80B000BF14E
:10415000010000F0FF0B641CE4B2102CCDD310352D
:10416000761CEDB2F6B2482DC6D31199584681F8A7
:10417000009007B0BDE8F08F4FF47A71484309F022
:10418000E9BE00002DE9F04700268CB0DFF8609111
:10419000B0464FF4807501243746069628460AF04B
:1041A000E9FF38B1D9F80403204203D028460AF0C9
:1041B000D7FF26432D1D64007F1CADB2082FEDD321
:1041C0004FF4BE7420460AF0D5FF48B120460AF0ED
:1041D000C7FF46F0004606AA012100200AF0ACFF06
:1041E000444D16F0FF0F15D00127002437420DD0A3
:1041F00009EB8401D1F81005D1F81015C0F30420A3
:1042000055F82420C1F3014102B190477F00641C9E
:10421000082CEBD3002E67DA4FF0FF30CDE9088091
:1042200000263446281910F8507F90F9000027F036
:10423000C008401C44D009A9404609F0AEFD58B35F
:104240004FEA9719404607F0C3FB55F820701FB19D
:10425000B9F1030F03D00FE0B9F1030F30D108A873
:104260004FEAD80208F00703815C4FF0010C0CFA0A
:1042700003FC41EA0C0181544FF0A04101EB88009E
:10428000D0F8000706A9C0F3014A404609F085FDB1
:1042900018B1BAF1020F03D012E0BAF1030F0FD137
:1042A000B9F1030F08D1BAF1020F1BD00221404629
:1042B0000AF018FF761CF6B217B149464046B847D7
:1042C000641C042CAED3002E0ED06A4601210020BF
:1042D0000AF032FF06990098884205D006900898A7
:1042E00009909DE70321E2E70CB0BDE8F0870000EC
:1042F00000600040184B0020094951F8200000F5EB
:104300007760B0F5783006D000F57760B0F5783F8B
:1043100003D0002070470120704702207047000042
:10432000182D03000348007808B1002070470120D1
:1043300070470000642D0020094A002152F83130F6
:10434000834208D802EBC1039B68834203D902EB86
:10435000C10000797047491CC9B21529EED3FEE7A8
:10436000BC2D030010B50446406800280FD06078CB
:1043700010B1012805D008E094F9000009F0F2FF1F
:1043800003E094F900000AF0B5F80020606010BD69
:10439000F8B50B460446DDE90601656825B12046FF
:1043A000BDE8F84000F070B8237062700025A0707E
:1043B000E570012662B1009509B18DF8016069468A
:1043C00018460AF033F8B8B1BDE8F84005F048BF28
:1043D0000A4901280968009102D0022804D005E0AA
:1043E00003208DF8010001E08DF80160044A694660
:1043F000184609F051FFE6E76460F8BD242C03007D
:10440000E9000300F8B5044640781E460D46002832
:1044100033D1606828B194F9000009F0A3FF0020AF
:1044200060601648406800900120E570012D02D0C0
:10443000022D03D005E08DF8000002E002218DF886
:104440000010A178012902D0022901D002E0032046
:104450008DF8010094F90000094A694609F01CFF33
:1044600000280AD194F90000064941F8206094F927
:104470000000012109F0BEFE6460F8BD242C030099
:10448000E90003002C3500204278012A09D1426856
:10449000002A06D090F9000009B10AF023B809F00B
:1044A000BDBF7047F8B56D4604466E1C29462820EE
:1044B00000F041F8002827D03146292000F03BF8D1
:1044C000002821D0BDF80000208029462A2000F0D5
:1044D00032F8002818D031462B2000F02CF80028A4
:1044E00012D0BDF80000608029462C2000F023F88F
:1044F000002809D031462D2000F01DF8002803D0F7
:10450000BDF80000A0800120F8BD38B5044669461A
:10451000212000F010F800280CD09DF8000000F0D9
:10452000FE0121438DF80010212000F04DF90028F4
:1045300000D0012038BD10B50AF00EF808B10020F7
:1045400010BD012010BD38B5044669462020FFF794
:10455000F2FF00280ED09DF8000004F0070100F0E3
:10456000F80001438DF80010202000F02DF90028FC
:1045700000D0012038BD38B5044669462320FFF736
:10458000DAFF00280ED09DF8000000F0CF0040EACE
:104590000410C1B28DF80010232000F015F9002896
:1045A00000D0012038BD10B57F2801D9002010BDF2
:1045B0000146332000F008F90028F8D0012010BD92
:1045C00038B5044669462220FFF7B5FF002808D019
:1045D00021468DF80040222000F0F6F8002800D097
:1045E000012038BD10B57F2801D9002010BD01463B
:1045F000322000F0E9F80028F8D0012010BD0000BA
:104600001CB5044669463020FFF795FF002832D0DC
:1046100001A92420FFF78FFF00282CD0012C03D004
:10462000022C08D044B317E09DF8000000F0BF0052
:1046300040F0400024E09DF8000000F0BF0040F092
:1046400040008DF800009DF8040000F0FB0040F0F1
:10465000040000BF8DF804009DF80010302000F029
:10466000B3F8002807D09DF80410242000F0ACF81F
:10467000002800D001201CBD9DF8000000F0BF0004
:104680008DF800009DF8040000F0FB00E2E738B56B
:10469000044669463020FFF74EFF00280CD09DF8F5
:1046A000000000F0400121438DF80010302000F0A0
:1046B0008BF8002800D0012038BD38B50446694683
:1046C0003020FFF738FF00280ED09DF8000000F0E2
:1046D0003F0040EA8410C1B28DF80010302000F095
:1046E00073F8002800D0012038BD00001CB5044636
:1046F00069462020FFF71FFF002816D001A92320BC
:10470000FFF719FF002810D09DF8001021480A0972
:1047100005D1027802F0F0020A438DF800202CB196
:10472000012C18D0022C09D000201CBD9DF80010CF
:10473000017001F00F008DF800001AE09DF80000F4
:1047400000F0F7008DF800009DF8040000F0F7007D
:1047500040F008000BE09DF8000000F0F70040F08A
:1047600008008DF800009DF8040000F0F7008DF8B7
:1047700004009DF80010202000F026F80028D4D076
:104780009DF80410232000F01FF80028CDD0012050
:104790001CBD0000C42D002038B504466946202009
:1047A000FFF7C9FE00280ED09DF8000000F00F00B2
:1047B00040EA0410C1B28DF80010202000F004F887
:1047C000002800D0012038BD10B509F0CBFE08B19B
:1047D000002010BD012010BD70B50446884200DBEA
:1047E00001460D46042A0CD004220021184602F08E
:1047F0002BF9322803D2052C00DA05242546284659
:1048000070BD022CFADA0224F8E700002DE9F0412D
:1048100017460A460546DDE906411948089E4471D7
:1048200083711C0AC4711C0C04721B0E43728172CA
:104830000B0AC3720B0C0373090E4173D4B2C47319
:104840001048FFF704FB39460E48FFF711FB102212
:104850000B490C48FFF712FB224629460948FFF78F
:104860000DFB0849A1F58270FFF751FA064801785F
:10487000D0F8010041EA00203060BDE8F08100007E
:10488000342E0020B43D0020B03C0020F8B50E4688
:10489000040017467ED020680028FBD060680028FE
:1048A000F8D0A0680028F5D010460CF063FA014655
:1048B0007BA004F0F3FE384602F0ECF900286AD041
:1048C000824D002005F11A01C5E917462F740870C2
:1048D0006874A863287601266E76E8746865A86512
:1048E0000B208DF800006946384602F0C5F900B18A
:1048F0000120287508208DF800006946287C02F008
:10490000BBF9734C6946207005208DF80000287CA7
:1049100002F0B2F960700C208DF800006946287C26
:1049200002F0AAF9E0600D208DF800006946287CAD
:1049300002F0A2F920610E208DF800006946287C63
:1049400002F09AF960610F208DF800006946287C1A
:1049500002F092F9A06110208DF800006946287CD1
:1049600002F08AF9E06113208DF800006946287C86
:1049700002F082F984F8210014208DF800006946C5
:10498000287C02F079F9606215208DF800006946F4
:10499000287C01E07FE080E002F06EF984F82800D6
:1049A0001A208DF800006946287C02F065F984F829
:1049B0002C001B208DF800006946287C02F05CF971
:1049C00084F82D001C208DF800006946287C02F038
:1049D00053F920631D208DF800006946287C02F001
:1049E0004BF960630021287C02F04EF984F82060C6
:1049F0000A2206216260A4F138002172426001722D
:104A0000E168C1602169016161694161A1698161F8
:104A1000E169C16180F8206002F0DCFD2D4904F1FC
:104A2000380004F0C3FD4FF47A7104F1380004F04B
:104A3000CDFD294904F17C0004F0B8FD274904F1BB
:104A4000A40004F0B3FD264904F1CC0004F0AEFD4F
:104A5000244904F58E7004F0A9FD04F09BFD686301
:104A600004F1600020490160204981602049016112
:104A700020494160214C2049C16021688847606914
:104A800080470CF0F5FFAE74A16D30468847E06AB0
:104A900080470020F8BD0320F8BD0A20F8BD0000C3
:104AA0000D0A53656C6563746564204C6F726157C1
:104AB000414E20312E302E3220526567696F6E3A9A
:104AC000202573200D0A0D0A00000000C82D0020CB
:104AD000243B002019560200F15F0200355F0200FE
:104AE000955F0200E1550200015E02004558020098
:104AF000455D0200F95E0200A15D02003C2C03004E
:104B00002DE9F04105461C4617460E460C48FFF7B6
:104B10009EF939460A48FFF7ABF9F2B22946084830
:104B2000FFF7ACF90649A1F58270FFF7F0F80548E8
:104B30000178D0F8010041EA00202060BDE8F08152
:104B4000B43D0020B03C00202DE9FF4184B00F4669
:104B50000446984606ADF02200211D480E9E08F03E
:104B6000F9FD1B4A1021204605F06EFA10220021A3
:104B7000684608F0EFFD01208DF800006C46062223
:104B80003946601C08F0D0FD02222946E01D08F0DD
:104B9000CBFD0F4A4146684605F02EFA102200214F
:104BA000684608F0D7FD02208DF80000062239463D
:104BB000601C08F0B9FD02222946E01D08F0B4FD92
:104BC000034A3146684605F017FA08B0BDE8F0819F
:104BD000C03C00202DE9F04117460E4605461C4614
:104BE000F02200210C4808F0B5FD0B4A1021384690
:104BF00005F02AFA084A2146284605F0FDF9102E4C
:104C000008D304F1100105F11000BDE8F041024A9B
:104C100005F0F2B9BDE8F081C03C00202DE9FE4F5F
:104C20004FF0000904004FF0020A4E4678D0424986
:104C3000886BC20702D18B46C00602D50120BDE8B1
:104C4000FE8F00208DF80000014614223B4808F03A
:104C500081FD3A48012141708BF80D1022785846A9
:104C600022B1012A0AD0032A27D119E001739DF845
:104C70000020012622F0E002403207E0E27B0273CE
:104C80009DF80020012622F0E00280328DF80020FD
:104C900094F80490A78994F90E50D4F808800CE099
:104CA00001739DF80020012642F0E0028DF80020FB
:104CB000278994F90A50D4F804808DF80810204907
:104CC00091F82C108DF80A1002A99BF8100001F041
:104CD000D3FFA84200D9054668B2F6B19BF804108C
:104CE0005D4679B9164E8DF80400042296F82C0022
:104CF0008DF8060001A9287C02F063FC78B19DF8CC
:104D0000040070703B4642464946684604F022F96A
:104D10005FEA000A06D00020687150468FE7FFE77F
:104D200003208CE705482178017003481A30017888
:104D300041F001010170F0E7C82D0020803C002007
:104D4000EC3A0020F8B504004FF000051AD03648C0
:104D5000364B277803F12001027C01F138061E2F23
:104D60005FD2DFE807F0111316181A1D1F22242640
:104D7000282B32303A3D3F41434547494D4B4F5137
:104D8000535557590320F8BD407C00E0C07820718E
:104D900048E00079FBE7C06C00E0006D606041E036
:104DA0002348FBE722481030F8E7807CEFE7C07C1F
:104DB000EDE719200AE0D3E9110101E0D3E91F0171
:104DC000C4E901012EE0172000E016208DF8000054
:104DD0006946104601F050FFE0E791F82000D6E761
:104DE000C868DBE70869D9E74869D7E78869D5E784
:104DF000C869D3E77078CAE74878C8E73078C6E76B
:104E00000878C4E7806AC9E7C06AC7E7406AC5E7AF
:104E10004868C3E7087ABAE791ED0D0A84ED010A04
:104E200000E002252846F8BDC82D0020CC3A00201D
:104E3000CC3700202DE9FF5F07004FF0000408D0B9
:104E40008E4D95F83800C00705D0012004B0BDE8AC
:104E5000F09F0320FAE7DFF82C92884809F1580800
:104E6000A8F138063B78864A96F82D10007C4FF062
:104E7000000B4FF0010A1E2B7CD2DFE803F00F1F5E
:104E80002225282B313A3FFB427C908B99A1A4A785
:104E9000AAADB0BDD6C9E4E7FBEAF1F6387968748B
:104EA00020B1012804D0022802D102E0D06A804754
:104EB000E1E085F805B001F06DF8DCE03879E870E4
:104EC000D9E038792871D6E07868E864D3E078686A
:104ED0002865D0E07968002971D010226A4805E081
:104EE000796800296BD068481022103008F01CFC4B
:104EF000C1E03879A874916D8847BCE03879E874CE
:104F0000B9E03A7A8DF804208DF80510062201A93F
:104F100002F057FB002852D0D7E90112C9E911125B
:104F2000687C022825D1E878002822D0574F0097C6
:104F3000327A96F92810287C736801F087FE687D24
:104F40003870706A786096F82D003874E87C787450
:104F500087F813A087F812A007F140023946287C91
:104F600001F0C6FE58B3B87CF16802F0E9FBF87CAA
:104F7000E87380E07EE03A7A8DF804208DF8051021
:104F8000062201A902F01DFBC8B1D7E90112C9E947
:104F90001F1270E0796802918DF80CA003E0796827
:104FA00002918DF80CB002A901F0F9FB38B162E072
:104FB0003879411E0E2944D886F820005BE040E095
:104FC0007868F06057E07868306154E07868706124
:104FD00051E07868B0614EE07868F0614BE0397973
:104FE0008DF80410052201A902F0EBFA48B39DF8F0
:104FF000040088F801003EE039798DF8041004229D
:1050000001A902F0DEFAE0B19DF80400707032E010
:1050100039798DF80410082201A902F0D2FA80B182
:105020009DF8040088F8000025E039798DF8041017
:10503000072201A902F0C5FA18B19DF804003070EA
:1050400019E0032417E07868A86214E07868E86241
:1050500011E07868C8F8040070600CE005E0FFE734
:10506000387988F80800307205E097ED010A86ED7E
:105070000D0A00E002242046E8E60000C82D0020CA
:105080003C2C0300CC3A0020CC3700202C3C0020E4
:105090002DE9FF4704004FF0020832D0464E96F843
:1050A0003800C00718D10C220021444808F052FBF8
:1050B000424F01204FF000097870207806F11A0560
:1050C00030B1012857D0022861D003284BD167E0C6
:1050D00096F83800C00603D5012004B0BDE8F0877B
:1050E000606870B1A06860B1E06850B1207C40B1E8
:1050F0008DF808001E2202A9307C02F062FA10B17D
:1051000009E00320E9E71F208DF80C0003A9307C9B
:1051100001F0B2FD2074287840F008002870207853
:10512000387060683064A0687064E068B064207CA7
:10513000707686F818908DF8009002F04BFA307E69
:1051400001A9401CADF80400307C01F007FB1C49AC
:1051500000231A4648701946684603F0FBFE00BF5C
:105160005FEA000805D086F80590287820F008004E
:1051700028704046B1E72878002240F008002870E7
:105180002078387011460220FEF7D0FEE8E738702C
:10519000287840F008002870A08803F087FFDFE738
:1051A0003870287840F008002870227BA088A16819
:1051B00003F0ACFFD4E70000C82D0020943C002091
:1051C000EC3A0020FEB508AF97E870008DE870005B
:1051D00000F002F8FEBD00002DE9FF5F0D46DDE99D
:1051E0000F8A814600261F460124F02231462C48B2
:1051F000DDF838B008F0AEFA294A1021029804F020
:1052000023FF2848390A80F805B08771C171390C2D
:105210000172390E417280F80A804FEA1821C1727A
:105220004FEA184101734FEA18611D4F4173203F47
:10523000804619E088F80F40194A641CA4B2A2F114
:105240002001184804F0D8FE002031183B5C19F802
:105250000120401C5A4080B20AF801201028F4D3E3
:10526000103D1036ADB2F6B2102DE3D2002D14D0A1
:105270000B4A88F80F40A2F120010A4804F0BCFE56
:10528000002008E031183B5C19F801205A40401C0E
:105290000AF8012080B2A842F4D3BDE8FF9F0000C5
:1052A000C03C0020442E00202DE9F04381462E48CA
:1052B00087B00E0041788DF804102C4C00788DF8E2
:1052C0001800207A617A0844C5B238D04FF000083F
:1052D0008DF808802079244F8DF80900206B383F25
:1052E000039078788DF8100038788DF8110097F8D1
:1052F0002C008DF8120004F13000009006AB01AADA
:1053000002A9207C01F01AFA97F82C008DF81600FB
:105310009DF804008DF8150009208DF81400E07C3C
:1053200010B10A208DF8140005A9207C01F0A4FC1E
:10533000C0B27070A84206D3401B307009E0032051
:1053400007B0BDE8F083307084F80880002584F849
:1053500009802A469DF90410484604F079F908B1FD
:105360000020EDE70820EBE7243B0020C82D0020BB
:105370000149012008717047942D00202DE9F04368
:1053800041788BB000292DD1604C2278012A02D1BE
:10539000A189491CA181417B012923D1C1785C4DA0
:1053A000012917D0022915D0E0291BD10026012799
:1053B0000221D2B182684FF004084FF0030913783C
:1053C0000B226370082B0DD2DFE803F02A37393B3C
:1053D0003D525875017B012904D18068007800F0A6
:1053E0000100E8700BB0BDE8F083027B042AF9D11C
:1053F00080680278012AF5D14278012AF2D18278B8
:10540000012AEFD1C0780128ECD1AE70E0202870DD
:105410006970A681A673E67326742770677004E02E
:10542000AE7029706A70A68126708DF800108DF814
:1054300004706846FFF7FEFCD4E76970D2E7AF70EE
:1054400062E0AE7060E0334A037B6B7082F80080EC
:10545000012105E08468645C641C5454491CC9B291
:10546000F22B01D21C4600E0F2248C42F2D8B9E7BC
:105470008DF80C7003A8FFF70BFEB3E7AE70297030
:105480006A70A68126708DF820108DF8247008A807
:10549000FFF7D0FC1E488DF80C60103004900830E7
:1054A0000590083006908DF81C9003A8FFF7F0FDDA
:1054B00085F8058096E7027B032A02D0072A09D0E7
:1054C00022E08DF80C108068B0F8010040BAADF809
:1054D000100016E08DF80C908168B1F8011049BAFF
:1054E000ADF810108168CA780B791204497942EA44
:1054F00003220A4364214A430592806880798DF82B
:10550000180003A8FFF7C4FD67706BE79037002011
:10551000942D0020AC35002070B501780F4C01258A
:1055200011B1012917D10BE0407808B1657112E083
:10553000022060710AA004F0B1F808F055F80AE002
:10554000417841B90C490A78012A04D18D73027A55
:10555000CA73407A0874257170BD0000942D002034
:105560004F544141204A6F696E20537563636573E0
:1055700073200D0A000000009037002000F01F0289
:10558000012191404009800000F1E020C0F8801224
:10559000704700F01F02012191404009800000F196
:1055A000E020C0F80011704700F01F020121914077
:1055B0004009800000F1E020C0F800127047490760
:1055C000090E002806DA00F00F0000F1E02080F854
:1055D000141D704700F1E02080F8001470470000AF
:1055E00010B50B4804F018F80A48417929B1012197
:1055F0008173816B21F004018163407C022805D115
:1056000004481A30017841F01001017010BD00000B
:10561000403C0020C82D00202DE9F8430027864893
:1056200003F0FAFF854DA5F11A042878C10670D55C
:10563000A16B4A0602D521F04101A163804902070E
:10564000A1F114084FF0000601D4C20712D098F857
:1056500001304246022B02D04B78022B0AD1A36BB9
:10566000012723F00103A3632672637B5371167134
:10567000C8F8086062793A436F4FA7F170072FD1DD
:10568000020702D4C10702D12AE00A783AB197F89A
:105690002010A27A91420DD9810711D41BE0227EFD
:1056A0008A72497819B1617E8A420FD213E0A662EC
:1056B000A6720BE0800703D42672206B401C206387
:1056C000A672607810B9A06A401CA062A06B20F09E
:1056D0000100A06304E020F01000287000F088FCB6
:1056E0002878800716D598F80410012903D0617B2B
:1056F000227B91420ED9A6736671617811B9A16AB5
:10570000491CA162617B88F80510A06B20F00100A4
:10571000A0634EE0A07B98B394F83800C00648D44C
:10572000A673607B217B884230D208282ED8401C8B
:105730006073C0070ED020208DF8000097F82C0071
:105740008DF8020078788DF801006946207C01F020
:1057500093FA787003F07EFB98B1092188F8011064
:105760002672A16B21F00101A163667188F80460C3
:10577000617B88F80510797888F802106078A8B104
:1057800017E0287820F01000287012E00121207C1A
:1057900001F07AFAA06B20F00100A0632672667116
:1057A00088F80460617B88F80510E7E7A06A401C70
:1057B000A062A06B810702D520F00200A06370B147
:1057C0004FF47A711C4803F001FF1B4803F003FFFC
:1057D000287880072DD5607C02281CD01DE0287811
:1057E000C00708D0E06D016815481438884728784C
:1057F00020F0010028702878000707D5E06D816847
:105800000F488847287820F008002870287820F072
:1058100010002870DCE700F0BDFB2878400704D4B6
:10582000E06D416806482C388847287820F006004B
:105830002870BDE8F88300005C3B0020E22D0020CA
:10584000943C00202DE9FF4F97B04FF00009CDE9BF
:1058500004990646FD480B901030CDF84C90099005
:1058600000F2A440CDF8509080F80490A0F1180800
:10587000DFF8DCB3A8F80E201A9A88F810200D463D
:105880009BF80F20494688F8112088F8031088F803
:10589000021088F80510C8F8081088F80C1088F86D
:1058A0000D1088F81210EB48C8F8141088F8001092
:1058B000C06A4F468047A8F1780003F0ADFE30780B
:1058C000019041090F90281F6C1E4FF0010A0E90A5
:1058D000012919D003297DD005297BD007297AD049
:1058E00088F801A000F05EFDD9481A30017841F037
:1058F000100101700121D84803F068FED64803F07A
:105900006AFE1BB0BDE8F08F9BF803005F4610B144
:1059100088F801A0C0E0A1B2D04C701C631CBA6C26
:10592000FFF758F9019820700E9805AB81B2204618
:10593000BA6CFFF7E5F8601904F2A93810F8041DF5
:10594000427841EA02218278C07841EA024141EA84
:105950000060059988424CD1A4F20F100090BB4B17
:10596000FA8B611CB86CFFF7EFF82079617904F2CB
:10597000012640EA0120A17940EA0140F864E0797B
:10598000217A40EA0120617A40EA0140A17A40EAA6
:1059900001603865E07AC0F3021186F8211000F04A
:1059A0000F0086F82800207B10F00F00306102D134
:1059B0005046C6F810A04FF47A714843306100F5A4
:1059C0007A707061A54811A90D30113D11908DF8C4
:1059D000485001E011E098E1387C00F0C6FE00205C
:1059E00088F801009C4887F803A038384078707028
:1059F0007AE7072188F8011076E79748703890F821
:105A00002D008DF84200964800798DF8410009205C
:105A10008DF840009BF8130010B10A208DF840006B
:105A200010A99BF8100001F027F96FF00C0101FAA2
:105A300085F212B2002A03DD01FA85F109B200E015
:105A40000021814203D9864981F801A024E07078C1
:105A5000B1787F4A40EA0120F17840EA014031798B
:105A600040EA01610391126D05209142784916D0F8
:105A70004F6A0CE03A6803998A4207D101211491D8
:105A8000391D0B91103109917C6A09E0BF6A002F22
:105A9000F0D10B217248417000F084FC31E7CC6AF0
:105AA000325C401C9046315C401C049B305C41EAF7
:105AB000002102F00F0008300890701910F8042D32
:105AC0001A43437842EA03228378C07842EA0342C9
:105AD00042EA00600490081B1FFA80FB05A9BBF591
:105AE000004F12D25C44CDF800A0CDE901410E98E0
:105AF000039B81B230460B9AFEF788FEDDE9040174
:105B0000884219D10120139016E004FA8BF000F5B9
:105B10008030CDF800A01590CDE901010E98039BCF
:105B200081B230460B9AFEF771FEDDE9040188422E
:105B300002D10120159C139011208DF8400044489B
:105B400010A9007C01F098F8584504D844480A216F
:105B500041704461A0E71398002876D040490020A6
:105B6000DFF8ECB04870149A8A70C8F300124A71DA
:105B70008860087301F118024C615070CBF8300056
:105B80008BF8090014984FF0080C60B134480221DA
:105B90000170796AA14204D119B100BF80F801C037
:105BA0007AE77C621EE00F980521B1EB501F0CD103
:105BB0002B4B8BF806A083F800A0DBF82C00A0424A
:105BC0000ED168B14FF001090AE0254800238BF897
:105BD00006300370DBF82C10A14201D10029DDD181
:105BE000CBF82C401E481830007801283AD000200D
:105BF0008BF808000898281A001F002855DD089F18
:105C000008987F1CE91B091F305CC9B20491144934
:105C10000028C8704FEA08702BD038B11A980821B4
:105C2000C3B2781EC2B2304600F004FC0B4DCDF872
:105C300000A0CDE90145DDE90331F019099AFFF72C
:105C4000C1FAB9F1000F29D055E05CE0CC37002053
:105C5000C82D00203C2C03005C3B0020EB380020CA
:105C6000683C00205FEA8860C4D500218BF80810EA
:105C7000C0E710B14FF001093DE02F48CDF800A07A
:105C8000CDE90140DDE90331F0190B9AFFF79AFAEB
:105C90001A980021C3B22848049A0EE0274885606C
:105CA0000499017380F80DA00CE05FEA087006D03B
:105CB0001A980821C3B23046089A00F0BBFBB9F12C
:105CC000000F18D15FEA886007D51C49183181F8A8
:105CD00004A0183981F812A009E0184900201831F1
:105CE00008719BF80D109BF80C00814203D91348F2
:105CF000283803F091FC1249087840F0020069F35B
:105D000082000870F0E50C21C4E6711C2A460A489E
:105D100007F00AFD032188F80010002188F801101F
:105D200005490748C8F8081088F80C40017841F088
:105D300002010170D8E50000EB380020683C00202B
:105D4000E22D002070B5134C607C022803D012486D
:105D5000C06A804701E000F01DF910480D4DE27B5C
:105D600063791A3500F1140122B1062203B14270A1
:105D70004A7009E0052203B142704A70606D03F079
:105D80000BFCA16E884203D3287840F010002870E5
:105D900070BD0000C82D00203C2C0300803C00207A
:105DA00070B5144C607C022803D01348C06A804749
:105DB00001E000F0EFF811480E4DE27B63791A35EF
:105DC00000F114013AB1042203B142704A70607CC0
:105DD00002280AD170BD032203B142704A70606D7F
:105DE00003F0DAFBA16E8842F4D3287840F010006B
:105DF000287070BDC82D00203C2C0300803C002082
:105E00002DE9FE4F03F0C6FB384C0646607C0228A5
:105E100003D03748C06A804701E000F0BBF8334D3B
:105E2000DFF8D0A0A0781A350AF114084FF0010964
:105E3000002758B3A8F1CC00616E03F0C7FBA8F1AE
:105E4000CC0003F0C8FB607C02280DD0A8F1A400B0
:105E5000A16E03F0BBFBA8F1A40003F0BCFB607CC7
:105E6000022801D06079F8B112208DF8080002A94B
:105E7000207C00F001FFA16E01441E48403803F071
:105E8000A5FB1C48403803F0A6FB0DE08AF8017022
:105E9000042188F80110287810B9484685F8009048
:105EA000C0B240F0100028702878000702D598F89A
:105EB0000000B8B1E775607DA0758DF80000E0784E
:105EC0008DF8010001966946207C00F021FF66658F
:105ED0006079002804D18AF80170A07A401CA07271
:105EE000BDE8FE8F84F81790E5E70000C82D00207C
:105EF0003C2C0300803C00200B4810B5407C02285D
:105F000003D00A48C06A804701E000F043F808491E
:105F1000022048701431487003481A30017841F06B
:105F20001001017010BD0000C82D00203C2C0300A2
:105F3000803C002070B5144803F06EFB134D124CEA
:105F40000020E8735034697DA4F59676217096F8A8
:105F50002110E17096F82D102174E97C6174A07411
:105F6000E074687C022802D10948006B8047064A29
:105F7000287CA432A2F1540100F0BAFEA07CF168A2
:105F8000BDE8704001F0DCBBC83B0020C82D0020FC
:105F90003C2C030070B5144803F03EFB134C124D2B
:105FA0003C35607DA5F5A0762870706A686096F82B
:105FB0002D002874E07C68740120E874617C02295B
:105FC00000D00020084AA8747C32A2F14001207C55
:105FD00000F08EFE002805D0A87CF16801F0B0FB2F
:105FE000E87CE07370BD0000F03B0020C82D00206D
:105FF0001FB5184803F010FB174CA06B20F01000E1
:10600000A06304F11A000078000720D51148F4308D
:106010000078E0B901F0DEFA207E03A9401CADF85B
:106020000C00207C00F09AFB0A49B439487000202B
:106030008DF804002279014662F3C7118DF808102B
:1060400003460246009002A901A800F05BF802F0A6
:1060500001FF1FBDA03B0020C82D00202DE9F0410D
:106060004FF48077384607F065FF0124104EA507EE
:1060700048B1384607F065FF0120C5F80803747081
:10608000002005F0EBFC4FF48277384607F052FF12
:1060900000280BD0384607F054FF0220C5F808034B
:1060A000B470BDE8F041012005F0D8BCBDE8F08136
:1060B000044B0020F0B505004FF00003184600D057
:1060C000E2B90020F0BDEC5CA61E092E14D2DFE878
:1060D00006F0131113050F110B1305005B1C14546C
:1060E000DBB2401CEC5CC0B21454401CC0B203E0F4
:1060F0009B1C00E05B1CDBB25B1CDBB28B42E2D37F
:10610000F0BD00002DE9F04F87B0DFF884824FF03A
:10611000000B109CCDF80CB00E46A8F81CB0014640
:106120001D1E174688F805B000D10024E2B2994C34
:1061300088F800200878207009784FF0010C60463C
:10614000490909D002294AD0042946D007297DD01F
:10615000022007B0BDE8F08FA8F81C00601C0822E0
:10616000D8F8441007F0EAFAB8F81C000822083002
:1061700080B2A8F81C002044D8F8401007F0DEFADE
:10618000B8F81C000830A8F81C0083484069804714
:106190000146A8F81E00B8F81C0003AB2154401CAF
:1061A00080B2090A2154401CA8F81C00C1B27948E9
:1061B000D8F84820FEF7A4FCB8F81C000399215435
:1061C000401C80B20A0A2254401C80B20A0C22549D
:1061D000401C80B2090E2154D4E088F805C098F81C
:1061E0000300002867D001208DF8100030786B4A3A
:1061F000C0098DF81100D8F83000059012F8010F91
:106200008DF8180012F8010C8DF8190092F82B0087
:106210008DF81A005E48614B3030009004A998F860
:10622000100000F08BFA0146307861F38610307070
:1062300098F8061021B188F806B040F020003070C0
:10624000D8F85010C246A146617000E092E00A0AF8
:10625000A2700A0CE270090E217131786171B8F8F0
:106260002810A171090AE1714D4898F80810082416
:1062700008444B4998F80920803107F055FA98F8FE
:10628000081098F809000844C1B288F80810EDB168
:106290009AF800205046CAB1C279FAB10F2919D82C
:1062A00030783F4B421862F30300307089F80500E4
:1062B0004A46002007E007204BE71E5C1655641C89
:1062C000401CE4B280B28842F7D307E0504629B1BF
:1062D000C2791AB1324D8AF800100027304AD846E8
:1062E00056468AF807B080322D48FFF7E3FE7072F9
:1062F00008B10120F0719DB1317889B109F80470BD
:10630000641CE4B257B3B36A09EB0400CDF8008013
:10631000CDE901301F4A336D103A2846FEF75CFF85
:10632000307803AA2118B183B36ACDF80080CDE993
:106330000132184A1748203A336DFEF767FAB18BDD
:10634000039809EB010209F80100030A5370030CDA
:10635000000E9370D070091DB18316E086F8088096
:10636000404609EB0403B26A8DE80D00094A336D1B
:10637000203AD2E74BB142B1601C294607F0D4F96C
:1063800098F80000401CA8F81C000020E1E600007E
:10639000C82D0020EC3700203C2C0300EC3A0020F4
:1063A000EA3900200C4810B5816B41F0400181634F
:1063B000407908B1FFF714F907481A30017841F025
:1063C000120101700121054803F000F9BDE81040F9
:1063D000024803F000B90000C82D00205C3B0020FB
:1063E00010B5022801D0E0280DD110480122104B31
:1063F000847BA0F5F271012C06D04478012C0ED0DC
:10640000042C00D1427010BD0024847303245C70FE
:1064100005230B70C37B4B70037C8B70F2E7022269
:106420005A708089020A0A70487010BD90370020A7
:10643000942D00202DE9FF4F8BB017460C460546E2
:106440004FF0000ADFF8B0B2DFF8B0822DE1285D2E
:10645000641C801EE4B2092871D2DFE800F0051048
:106460006371A7B2DBF3F100A54981F801A0285DB3
:106470000872641CE0B22A5C4A72401C50E0281981
:106480008DF820A0401E0390381B8DF81CA0401CE6
:106490008DF818A08DF808A08DF8100098F8041059
:1064A0008DF812109BF82C108DF811109BF801102C
:1064B0008DF813109BF800108DF814109BF8201025
:1064C0008DF8151002AA08A9CDE900125E4607ABA7
:1064D00006AA03A998F8100000F0E2FB0990C04357
:1064E000400709D19DF8180070709DF81C003070AD
:1064F0009DF8200086F8200000264FF0050906E0F0
:10650000002203200999FDF711FD761CF6B29DF8D3
:106510000810B1FBF9F0B042F2D8C8B22044401ED6
:10652000C4B2C2E0285D641C012188F80B008140E0
:106530000022A8F82010E4B211460420B3E0B7E02E
:10654000285DC0F302108DF80100285D641C00F086
:106550000F008DF80000E0B2295C401CC0B2019130
:106560002A5C401C41EA0221C0B201912A5C401C15
:1065700041EA0241C4B20846642148430190694699
:1065800098F8100000F0BDFB0146C84340070AD14F
:106590009DF800208BF82820019ACBF824209DF844
:1065A00001208BF82120002205207CE0D8F8600033
:1065B000FF2118B1006808B18047014606200E9AF5
:1065C00071E0285D8DF81000641CE0B2CDF80CD0AD
:1065D000295C401CC0B200912A5C401C41EA0221A7
:1065E000C0B200912A5C401C41EA02416422009141
:1065F0005143CDE9001AC0B2295C8DF80810401C47
:10660000C4B203A998F8100000F05BFB0146002219
:10661000072048E0285D04F1010410F00F00E4B207
:1066200000D101204FF47A7110FB01F0CBF810007B
:1066300000F57A700022CBF814001146082032E0F1
:1066400039E0FFE7285D641C8DF800A0E4B28DF806
:1066500001A0810602D501218DF80110C10602D5E5
:1066600001218DF8001000F00F008DF8020069463E
:1066700098F8100000F066FB401C16D058469DF8B4
:10668000001000F82C1F9DF8011041709DF80210B9
:106690001C4A0920515C002200EE101A1146B8EE87
:1066A000400A8BED0C0AFDF741FCBC42FFF4CFAE73
:1066B0000FB0BDE8F08F285D8DF80000641CE0B2DB
:1066C000295C401CC0B201912A5C401C41EA0221B5
:1066D000C0B201912A5C401C41EA0241C4B20846A2
:1066E000642148430190694698F8100000F0BDFA13
:1066F000014600220A20D6E7EC3A0020C82D0020EF
:10670000943C0020F82C030007480021C0F84011F9
:10671000C0F84411C0F84811C0F84C11C0F800117D
:10672000C0F804110BF05CBA0010014004220021F3
:10673000014807F05BBF000000400240F0B41C4677
:10674000049B15460E46082802D0F0BC0020704776
:10675000224629463046F0BC00F0FCBA082801D099
:1067600000207047084600F039BB082802D10846CF
:1067700000F03BBB704730B414460D46082802D0E9
:1067800030BCD0B270472146284630BC1A4600F0D3
:106790002DBB082802D1084600F034BB70470828FA
:1067A00001D000207047084600F04CBB30B50246CF
:1067B0000068D17A092301EB410103EB8101002537
:1067C000405C51680C2401EB001304EB00141B889F
:1067D0000D51507A48B1907A012805D1106900FB1B
:1067E00003F1081A5168085130BDD06800F04EF925
:1067F000834200D31846917A09B9117A19B1116907
:106800004843401AEEE75068055130BD10B50B09FA
:10681000B3EB121F01D8914201D3002010BD01F04B
:106820000F0430F813200121A1408A4320F81320DF
:10683000012010BD10B500280CD000290AD000237B
:1068400006E000BF31F8134020F813405B1CDBB2B8
:106850009342F7D310BD2DE9F0479246DDE90829B0
:106860000E4680461946504600F0E8F9002824D02C
:10687000002425461EE00023012736F8150007FAFC
:1068800003F108420ED0E01800EB400109EB810053
:10689000007AC0F30312C0F30301504600F0CEF9B2
:1068A00001280AD05B1CDBB2102BE6D310346D1C20
:1068B000E4B2EDB24445DED30020BDE8F08700002D
:1068C0002DE9F05F04462DED068B1F469146B0EE94
:1068D000408AF0EE608A4800DDF84080FDF71DF840
:1068E0008B4606464BEC190B6FF0070000EB44009B
:1068F000FDF702F88A464AEC100B054653EC182BBC
:1069000051EC100BFCF717FF53EC192BFCF76CFE46
:1069100053EC182BFCF781FF41EC100B02F0E8FE62
:1069200051EC100BFDF725F8A0421AD34AEC105B8E
:106930004BEC196B53EC182B51EC100BFCF7FBFED6
:1069400053EC192BFCF750FE53EC182BFCF765FFAA
:1069500041EC100B02F0CCFE51EC100BFDF709F8E6
:10696000044648463C60FCF7D8FF41EC190B204632
:10697000FCF7D3FF53EC182BFCF7DDFE9FED121B49
:1069800053EC112BFCF7D7FE9FED110B41EC1A0BCA
:1069900053EC102B51EC180BFCF7CDFE53EC1A2BDB
:1069A000FCF7C3FE53EC192BFCF7BFFE41EC100BB8
:1069B00002F09EFE51EC100BFCF7BCFFC8F8000083
:1069C000BDEC068BBDE8F09F000000000000E03F3A
:1069D000000000000000104010B504462DED028BB1
:1069E0000846FCF79AFF41EC180B0120A040FCF789
:1069F00083FF53EC182BFCF710FF9FED051B53ECA6
:106A0000112BFCF798FEBDEC028B41EC100B10BD76
:106A10000000000000408F40400001EE100A10B559
:106A2000B8EE411A30EE410A30EE600A10EE100A5C
:106A3000FCF7B8FF41EC100B02F0E6FE51EC100B36
:106A4000FCF778FF40B210BDF0B505004FF0000034
:106A500001D0012717E00020F0BD00BF35F811E09C
:106A600000244FF0100C234607FA03F636EA0E0610
:106A700001D1641CE4B25B1CDBB26345F4D3204457
:106A8000491CC0B2C9B29142E8D3F0BD0649884260
:106A900001D2642070470549884202D24FF47A70CF
:106AA000704742F21070704780EE3600803F5C0203
:106AB0002DE9FC4F8946067890F9028090F9035041
:106AC00090F9047041789B469246044659B9B8F152
:106AD0000F0F01D10F2D02D094F90770002694F901
:106AE000058094F906501EB3616994F91100CDE94F
:106AF000000194F91030207A4246E168FFF7ABFEBE
:106B000008B906F0FD0694F9182094F919102846E2
:106B100000F094F838B994F91900A84201DD05464F
:106B200001E006F0FB06072E02D10FB994F90770B9
:106B300089F800808AF800508BF800703046BDE874
:106B4000FC8F03780022032B14D1427802F00F034C
:106B50008B70C2F303124A7082788A80C37842EA4B
:106B600003228A800079C0F30212CA7000F00F007D
:106B700008700522104670478A60002800D14A60DC
:106B800070472DE9FF5F00251E46934689464FF06A
:106B9000FF34AA464CE0009870B1B9F1000F40D024
:106BA0000BEB0517B86802F0F7FC0146F868814264
:106BB00029D3C7F80CA039E00BEB0518D8F804006E
:106BC00002F0EAFC07465FEA090003D0D8F80800A3
:106BD00002F0E2FC87420DD25FEA090003D0D8F848
:106BE000080002F0D9FCD8F80C10814205D8C8F88A
:106BF0000CA01BE0D8F80400F3E7B9B1081AA042D2
:106C000014D2044612E088B1B86802F0C5FCF968F5
:106C1000081AA0420AD2B86802F0BEFCF9680C1A41
:106C200004E00BEB05100024C0F80CA06D1CEDB2C5
:106C3000B542B0D304B02046BDE8F09F884203DBE4
:106C4000904201DC0120704700207047F0B41C46E0
:106C5000049B15460E46082805D122462946304693
:106C6000F0BC00F01DB9F0BC7047082801D000202E
:106C70007047084600F036B90022082801D01046B7
:106C80007047084600F030B9082802D1084600F0E5
:106C900091B97047082801D0002070470120704743
:106CA000F8B51C460E46DDE906311546082801D028
:106CB0000020F8BD009122462946304600F0E2F956
:106CC000F8BD082801D000207047084600F09EBAA1
:106CD000F0B41C46049B15460E46082802D0F0BCB2
:106CE00000207047224629463046F0BC00F090BA9A
:106CF0000B46082801D0002070471146184600F0C6
:106D0000F1BA082801D000207047084600F040BBC7
:106D1000082802D1084600F07FBB7047082802D13E
:106D2000084600F08BBB704730B414460D46082867
:106D300002D030BC002070472146284630BC1A469D
:106D400000F0AEBB082801D000207047084600F0D4
:106D500007BC00002DE9F8430446884690F9080076
:106D600094F90960616819606178002591460129EC
:106D70002AD1002758B16168402901D30125002696
:106D8000602921D301F01F01012902D01CE01F60FE
:106D90001AE020218DF800108DF80100A07A8DF8FE
:106DA0000200684600F0A0F840B268B921780025DA
:106DB000012909D108494FF6FF720A804A808A806A
:106DC000CA80FF220A814F8188F8000089F800609C
:106DD0002846BDE8F88300002C4200200146002030
:106DE0000978C90700D0042070477047044800EBB9
:106DF00081008056002800DA0020C0B270470000F1
:106E0000582D030000B585B00C4900910C49019143
:106E100041788DF8081001788DF8091081788DF887
:106E20000A10C1788DF80B104168039180680490B6
:106E30006846FFF7BBFC05B000BD0000CC3E00205B
:106E4000542E002010B50446006804220021FFF7EC
:106E5000FBFD012803D0207918B1012816D00020AD
:106E600010BD06220D482168FFF7E4FC0B4A002004
:106E700002F10C0132F8104031F81030234021F8B3
:106E80001030401CC0B20628F4D305E003480622A7
:106E900018302168FFF7CEFC012010BD2C420020E5
:106EA000F8B51C4615460E460D2800DB0D20607017
:106EB000FDF722FAA07094F901000949084A103A36
:106EC00051F82010105CFFF787FD04F10C00031F40
:106ED0000090012229463046FFF7F2FCF8BD000081
:106EE000182D03000020704770B50246002014786A
:106EF00008234FF47A71212C19D2DFE804F03C18F2
:106F000018181818181818191D182326282B2E3190
:106F100034183A3C3E404345181847474C4C110042
:106F200092F90100002108B1401EC1B248B270BD03
:106F300092F90100194903E0184992F90100103152
:106F4000085C70BD40F6B83070BD084670BD4FF4A7
:106F5000FA6070BD41F2883070BD41F2707070BD52
:106F60004FF4804070BD0E4809F0CAFC00F5FA608D
:106F700070BD0C4870BD184670BD0B4870BD0A4806
:106F8000183070BD482070BD084870BD9FED080ADC
:106F900010EE100A70BD022070BD00006C2D0300C1
:106FA00018FCFFFFA07008372C420020CC3E0020C8
:106FB0000000000070B5C8B1012816D12D49062285
:106FC000A1F11800FFF736FC2A4A0020183A02F116
:106FD0000C0100BF31F8103032F81040234021F886
:106FE0001030401CC0B20628F4D370BD0021224CE2
:106FF000224830250A4600BF40F635434B4304EB98
:10700000831601EB4103491C40F8236000EB830326
:10701000C9B21D725A724029EED34021184C442542
:1070200040F635434B4304EB432601EB4103491C37
:1070300040F8236000EB8303C9B21D725A724829DD
:10704000EED30C484FF6FF71018041808180C180F2
:10705000FF2101814281014606221838FFF7EAFB31
:107060000449BDE870400622183901F10C00FFF711
:10707000E1BB0000444200206001C835CC3E002046
:10708000C02FB82F2DE9F04F8DB0002693468A46C9
:107090000446994607273546029603960622594923
:1070A00002A80496FFF7C6FB0DF1080814E020685B
:1070B00069463044FFF745FD88B13044C6B29DF8BB
:1070C00003000727062855D007285ED0052869D079
:1070D000BDF8042028F810202079B042E7D89DF9A7
:1070E0000100042808DA0422002102A8FFF7ACFC02
:1070F000022801D207F0FE0701208DF830006079E8
:107100008DF832000CA8FFF7EFFE8DF81470A1790E
:107110008DF815109DF801108DF816109DF80210CD
:107120008DF817109DF800108DF81810E1798DF882
:107130001910217A8DF81A10617A8DF82400042034
:107140008DF81B108DF825002F480A900A20482141
:107150008DF82C006B468DF81C109A1CCDF8208001
:107160008DF82D50511E05A8FFF7A2FC04460728F4
:107170001AD035E04FF6FF70ADF80800ADF80C00FE
:10718000ADF80A00ADF80E0007E0ADF80850ADF814
:107190000C50ADF80A50ADF80E50BDF80400ADF833
:1071A000100099E7062797E7062202A91548FFF77E
:1071B00041FB1449134A0C31088813881840088091
:1071C0004888538818404880888893881840888069
:1071D000C888D3881840C8801089088150894881A0
:1071E0009DF801108AF800109DF802108BF800102D
:1071F0009DF8001089F80010169806700DB0204612
:10720000BDE8F08F2C420020CC3E002000207047CB
:107210002DE9F04395B08946044600251F461646E1
:107220008DF85050482102A8FCF756F9042200219D
:107230002948FFF709FC28B9274904220C392648B8
:10724000FFF7F8FA94F90800042808DB2248017ACD
:1072500011F0FF0F03D1A0F10C01098901816068D1
:1072600002F09AF92168884221D33D60A17A607AC0
:1072700001231A4AFFF785FC14A90DF10808CDE98E
:1072800000810746207A154B154A1349FCF729FF60
:10729000B8B1411E002009F033FB18F8001089F83E
:1072A000001040220C48FFF7B1FA35600DE09DF860
:1072B0005000401C8DF85000606802F06DF92168A4
:1072C0000F1A9DF8500020B13760012015B0BDE8BD
:1072D000F08300203560F9E738420020542E00206A
:1072E000CC3E00202DE9F043DFF89880044690F969
:1072F00001504768D8F804008BB08946804718B120
:1073000000200BB0BDE8F083E07C50B9207842F259
:107310009F4100F0070010FB01F01B4901EB8017B3
:1073200067601A48D8F80C10465738468847A17C41
:107330000122CDE9082100200690079021890590BF
:1073400089B2CDE9021008210490CDE9000113466D
:10735000D8F81870A17832460120B847607C01281F
:107360000CD00A486430D8F85420405D0D30C1B2CA
:107370000120904789F800500120C2E7034874308B
:10738000F1E700003C2C0300A0700837082D030033
:1073900070B5054646681C480724016A3046884790
:1073A00070B11A4886420BD31948864208D817484C
:1073B000184940423044B0FBF1F201FB120000B129
:1073C000062495F900000D220821FFF737FC08B9C3
:1073D00004F0FD0495F9000007220521FFF72EFCBB
:1073E000012803D095F900000D2801DD04F0FD040B
:1073F00095F9010003220021FFF720FC08B904F0F1
:10740000FB04204670BD00003C2C0300A070083730
:10741000E0864837C02709000178064B01EB41019F
:1074200003EB8101044B497A426803EB0111407878
:10743000FFF7A2BBCC3E0020542E002070B50446BE
:1074400090F901200078124D00EB400005EB800020
:107450001049407A05F5587301EB001090F90210BD
:1074600094F90200FDF7B8F92178DFED0B0A01EB82
:107470004101B3EE0E0A55F82150FFF7CDFA01464F
:107480000648A289C36B2846BDE870401847000033
:10749000CC3E0020542E0020000000003C2C0300B5
:1074A0002DE9F04F9246044690F901202748284DD7
:1074B0008B4687562078274900EB400005EB80007B
:1074C00089B0407A05F5587301EB001090F902106D
:1074D00094F90200FDF780F9814694F90100FCF768
:1074E0000BFF8046DFED1C0AB3EE0E0A4846FFF79D
:1074F00093FA0646207800EB400055F82000174D1F
:10750000E9688847002040F6B83105900690CDE93B
:10751000070101210822CDE901120097CDE90301FD
:107520000246EF69434631460120B8476A6D217B28
:10753000012090476A6A217B01209047CAF8000029
:107540008BF8009009B00120BDE8F08F082D0300F2
:10755000CC3E0020542E0020000000003C2C0300F4
:107560004FF0FF30704710B5072921D006DC042901
:107570000BD005290DD0062921D10FE0082917D0FD
:107580000B291CD01E291AD116E090F90000042204
:1075900002E090F900000522002103E090F90000CC
:1075A0000D220821FFF74AFB002800D0012010BD62
:1075B00090F900000A22EFE700780228F6D20020B6
:1075C00010BD0B46082801D0002070471146184610
:1075D000FFF7C9BF70B51E4800210122C17081624A
:1075E000C16201638172027342738173C17202844A
:1075F000017241728270174AA2F1380314781C702C
:1076000054785C7092F8214083F82140A2F158042C
:10761000D4E91F56C4E9115692F82C4083F82C4047
:1076200092F82D4083F82D4092ED0C0A83ED0C0A60
:1076300092ED0D0A83ED0D0A41718171C171426AAB
:1076400001E05162926A002AFBD14175817570BDDB
:10765000C82D0020243B00201CB51049104AD1E958
:107660000001CDE900014FF4A370ADF800000B4814
:107670006946083006F08AFF08B102F0F1FD0748BC
:107680000021083007F024F804480121083007F0F1
:107690000DF80248083006F06DFF1CBD2C2C0300CD
:1076A000410D030070B5092000F090FD054606204D
:1076B00000F08CFD0404072000F088FD44EA00245B
:1076C000082000F083FD2043FCF727F99FED191BEC
:1076D00053EC112BFCF72FF8FCF74BF90446002173
:1076E000092001F09DFB3B2000F070FD40F04001BF
:1076F0003B2001F095FB3B2000F068FD8006FAD4AA
:107700000E4800F051FE3B2000F060FD40F04001CB
:107710003B2001F085FB3B2000F058FD8006FAD4A9
:107720002946092001F07CFB2046BDE8704000F0AE
:107730003BBE00000000000080844E4000A1BC332E
:107740000200044802D0416B00200847426B084603
:10775000104700003C2C0300F8B511480F4D0446BB
:107760004FF48C7107F055FE002815D00026C4F8A0
:107770001861D4F818010090A87F2C46FF2801D08A
:1077800007F0C1FC66772672D4E9002101B004F14C
:107790000800BDE8F0401047F8BD0000704B002025
:1077A0000030004002494FF0402005F0ADBB000022
:1077B000944B00200AF062B907F0C0BD10B5044830
:1077C000FCF7D0FD0248BDE810400830FCF7CABD08
:1077D000802D00207CB50125002423462A46172150
:1077E0000748CDE90045FCF7D3FD054800230122F9
:1077F00016210830CDE90045FCF7CAFD7CBD00002C
:10780000802D002001207047014890F85C007047EF
:107810005043002070B50D462DED0E8B01004FF04A
:1078200000009FED84BB9FED85CB9FED86AB874C21
:107830009FED878B0ED001297ED1D4F89C00B0EE4D
:10784000489AF0EE689A07285FD0082860D0092887
:1078500063D160E0606FFCF760F841EC190B2846DB
:10786000FCF75BF841EC1D0B302000F0AFFC30F072
:10787000F90004D0B0EE4AEAF0EE6AEA03E0B0EEB6
:1078800048EAF0EE68EA272000F0A0FC20F0F800BB
:10789000B4F87810401C0844FCF73FF841EC100B9A
:1078A00094F87A00012803D1B0EE48AAF0EE68AA55
:1078B00053EC1A2B51EC100BFBF796FE53EC1E2BDE
:1078C000FBF792FE53EC1D2BFBF78EFE41EC100BE9
:1078D00094F87C00012801D19FED5F8B51EC100BD7
:1078E00053EC182BFBF780FE53EC1B2BFBF723FF0D
:1078F00053EC192BFBF791FF53EC1C2BFBF71BFFF1
:1079000041EC100B02F00CF889E09FED559B04E070
:107910009FED559B01E09FED569B54F8A06F012011
:10792000B040FBF7E9FF41EC100B51EC190B53ECA5
:10793000102BFBF772FF00E079E041EC100B51ECEB
:107940001A0B53EC102BFBF768FF41EC190BE08886
:10795000FBF7E3FF9FED481B53EC112BFBF744FEB5
:1079600053EC192BFBF7E7FE41EC1D0B6079001D72
:10797000FBF7D3FF41EC1E0B2079A03C00B10220A5
:10798000301A8000FBF7C9FF41EC1A0BE800714286
:1079900000EB810094F8AA1000EB011094F8A810F5
:1079A00001B11421401A1C30FBF7B7FF53EC1A2B1E
:1079B000FBF733FF41EC100B01F09AFE53EC1E2B4A
:1079C00051EC100BFBF7B7FE41EC1A0B53EC182BE4
:1079D000FCF714F803D2B0EE4A8AF0EE6A8A53EC50
:1079E0001B2B51EC180BFBF7FFFD53EC192BFBF78E
:1079F000A2FE41EC100B51EC1D0B53EC102BFBF7CE
:107A0000F3FD53EC1C2BFBF796FE9FED1D1B53EC77
:107A1000112BFBF7E9FD41EC100B01F0F5FEBDEC7D
:107A20000E8B51EC100BBDE87040FBF7A2BFBDEC14
:107A30000E8B70BD00000000000020400000000020
:107A400000408F40000000000000F03F5043002045
:107A500000000000000000000000000000000040E6
:107A6000000000008084FE400000000080840E4181
:107A70000000000080841E41000000000000114052
:107A80002B8716D9CEF7EF3F70B51A4908601A490F
:107A90001A4801F08BFD19481749283001F086FD7E
:107AA00016481549503001F081FD00F0CBFBFFF77F
:107AB000F9FD002000F0F2FC0E48001D00F066F811
:107AC0000F4D002404EB4406A85D00F0ABFC7019D8
:107AD0008178407801F0A4F9641CE4B2102CF1D351
:107AE000002000F09FFC05490020C03981F85C00AF
:107AF00070BD0000642E0020A98002001044002008
:107B00008C2D03007FB50E2000900B230C220D213D
:107B10001D4801F041FB01251B4800242B462A4645
:107B200006214038CDE90045FCF732FC0023012254
:107B3000052102A8CDE90045FCF72AFC02251248E0
:107B4000CDE9005400231A4607213038FCF720FC09
:107B50000D48CDE9005400231A4608212838FCF7C7
:107B600017FC0948CDE9005400231A4609212038A2
:107B7000FCF70EFC0448CDE9005400231A460A2104
:107B80001838FCF705FC7FBD9043002010B5044673
:107B90000368032201210D48FCF734FC0B48032243
:107BA000012108306368FCF72DFC084803220121FD
:107BB0001030A368FCF726FC0448E3680322012187
:107BC000BDE810401830FCF71DBC000060430020E9
:107BD0002DE9F0411D4617460E468046012400F06F
:107BE00021FC304600F0E0FB052000F057FC0120AE
:107BF000FCF7C2FA01F0CEFC064606E0404600F073
:107C000001FBB84201DD002404E0304601F0C4FC71
:107C1000A842F3D300F01EFF2046BDE8F08100002B
:107C2000F8B500258DF80050904C914E94F85C000A
:107C300001280AD0022854D104F1C00001F0ECFC64
:107C400094F85D0001287DD100E194F85D00B8B1A1
:107C5000012846D14021122001F0E2F8122000F064
:107C6000B5FA8DF800009DF8000080066BD5202144
:107C7000122001F0D5F894F8AE0000287DD08CE0F9
:107C800094F87C00012833D13F2000F09FFA8DF852
:107C900000009DF8000080072AD40B213E2001F04F
:107CA000BFF810213F2001F0BBF87048E83001F028
:107CB000B3FC94F87E00A8B10D2000F087FA40F0E4
:107CC00040010D2001F0ACF86A4801F084FC3068F6
:107CD00010B1006900B1804704F8885F6570A58124
:107CE0006581F8BD634801F097FC84F85C50EEE7CD
:107CF000B4F89200604F10B9B4F8941031B1B4F8F0
:107D00009420801AC1B2D01992340DE094F87A0010
:107D1000A0B3322000F05AFAA4F8920014F8921F8F
:107D20006088091AC9B2384400F064FA34F8020BCA
:107D300024F894094F48283801F06EFC94F87E002E
:107D400018B301E086E031E00D2000F03FFA40F08A
:107D500040010D2001F064F8464801F03CFC306819
:107D60000028B9D08668002EB6D094F98A20B4F8DD
:107D7000921000234048B047AEE70CE0FFE73D48D3
:107D800001217E3800F036FAC8E784F85C503948A3
:107D900001F042FCE3E784F85C503648283801F0F3
:107DA0003BFC306800289CD0006959E0192000F0A5
:107DB0000DFA40B284F8B800010605D5C043401C56
:107DC000C0F38500474201E0C0F385071A2000F0A8
:107DD000FDF92A49226E002F06DA00EB20108A42B4
:107DE000384405D99D3804E08A4200EB2010F9D8C8
:107DF000A438A4F8BA00132000F0E8F984F8BC0015
:107E00001020AE3400F0E2F901460D2001F008F830
:107E1000A17B194800F0EEF914F8AE0908B984F80E
:107E20005C501448283801F0F7FB30680028BAD0BD
:107E30008568002DB7D014F9B83FAC46B4F90220DC
:107E4000217901B00C48BDE8F040604708211220BC
:107E500000F0E6FF84F85C5030680028A3D000688A
:107E60000028A0D001B0BDE8F040004750430020FA
:107E7000642E0020604400205042002040DD4A1F54
:107E800070B5344C204694F85C3090F85D20B0F822
:107E90009210B0F89400A4F58075012B15D0022B38
:107EA00012D1002A10D10A1A234694F89710B3F879
:107EB0009430284618448A4244DD00F0C3FF34F869
:107EC000940FE1780844208070BDB2B1012AFBD143
:107ED0002048E83001F0A0FB8021122000F0A0FF34
:107EE000002084F85C001C4800680028ECD0C068C2
:107EF0000028E9D0BDE87040004741B938B994F88E
:107F00007A00A0B1322000F061F9A4F89200B4F830
:107F10009210B4F894000A1A94F896108A420CDD74
:107F2000284400F067F934F8940FA178CAE70948AB
:107F30000121923000F05EF9E9E7D1B2284400F067
:107F400059F902E0D1B200F07DFF34F8920F608061
:107F500070BD000050430020642E002070B52E4CF0
:107F60002E4D204694F85C2090F85D1090F8AB0000
:107F7000012A03D0022A00D109B970BDB9B1012983
:107F8000FBD10128F9D10221122000F049FF286815
:107F90000028F2D040690028EFD01C2000F016F92C
:107FA000296800F03F004969BDE870400847606BF0
:107FB000012568B394F888000128DED194F889007F
:107FC0000028DAD1164801F027FB04F8895F112058
:107FD00000F0FCF84008404260701C2000F0F6F809
:107FE00005461B2000F0F2F845EA0020FBF795FC5F
:107FF0009FED0C1B53EC112BFBF79DFBFBF79AFC41
:10800000C4F803000C2000F0E1F84009E07170BDF5
:1080100084F88850D2E7000050430020642E0020EE
:10802000604400200000000080844E40144810B5D9
:1080300090F85D00002821D001281FD1122000F007
:10804000C5F8104CC0070BD00521122000F0E8FE47
:108050002068002812D0816900290FD001200AE091
:108060000421122000F0DCFE2068002806D081697F
:10807000002903D00020BDE81040084710BD0000D3
:1080800050430020642E0020064890F85D1000291F
:1080900006D190F88810002902D1012180F88810BB
:1080A00070470000504300202DE9F047334CDFF8C3
:1080B000D0904FF0000894F85C0001282BD00228E3
:1080C00059D100F0BFF8FFF7EDFA002000F0E6F913
:1080D0002C4E002505EB4507F05D00F0A3F9B8191B
:1080E0008178407800F09CFE6D1CEDB2102DF1D32C
:1080F000002000F097F994F8B40000F0E7F984F854
:108100005C80D9F80000002835D04068002832D0C3
:10811000BDE8F047004794F85D00D0B984F8888046
:1081200084F88980A4F89480A4F8928045460B21B5
:108130003E207E3400F074FE10213F2000F070FEDF
:1081400014F87E0901280AD084F85C500E4801F02A
:1081500063FAD9F8000000280DD0C068D6E70D20DA
:1081600000F034F840F040010D2000F059FE0648C0
:1081700001F031FAEDE7BDE8F08700005043002040
:10818000642E00208C2D03006044002070B5002573
:10819000012000F047F9FF21112000F041FE0520E9
:1081A00000F07CF900240120FBF7E6FF2C2000F012
:1081B0000DF800F00100A040641C0543E4B2202C3F
:1081C000F1D300F047FC284670BD000008B5014619
:1081D00001236A46024800F0B7FF9DF8000008BD81
:1081E0009043002013460A460146014800F0ACBF08
:1081F000904300200B4602460021014800F0A4BF36
:108200009043002010B520B1012808D04FF0FF3076
:1082100010BD1120FFF7DAFF4008404210BD0748AB
:108220000749006E88424FF01B0003D9FFF7CEFFCD
:108230009D3810BDFFF7CAFFA43810BD5043002081
:1082400040DD4A1F1CB5002400942346012206216C
:108250000A480194FCF79CF80120FBF78DFF0120F0
:10826000CDE9004000231A4606210448FCF790F8A7
:10827000BDE81C400620FBF77FBF000050430020F4
:1082800073B53B4C0546002094F85D1011B10129EF
:108290006BD12DE00020A4F894009DF80410A4F800
:1082A000921094F87A0058B1322000F0B9FD00BF66
:1082B0009DF80420501E3F2807D884F897200BE033
:1082C000012101A800F0BEFDF2E72946294805F08A
:1082D0002BFA202084F8970094F8971028468034D1
:1082E00000F0B0FDA08AE17D0844A08220683CE057
:1082F00094F8AD0001284FF0330021D0FFF766FF5E
:1083000000F0BE013320491C00F08AFD1D213B20F6
:1083100000F086FD9DF8041084F8BC10222000F0C7
:108320007FFD00210E2000F07BFD00210D2000F0DC
:1083300077FD0120FFF74AFF30F0F80009D00DE08B
:10834000FFF744FF00F0BE01332000F069FD192162
:10835000DDE700F093FB0120FBF70EFF9DF8041012
:10836000284600F06FFDD4F8B00000F09BFB7CBD08
:108370005043002050420020032803D0002102482F
:10838000FCF782B80121FAE7882D002005490A7818
:10839000824205D0087008B1FFF710BAFFF71ABA89
:1083A000704700007C2D00200E4910B50866FBF7D1
:1083B000B4FA9FED0D1B53EC112BFBF72EFAFBF7D4
:1083C000D8FA0446C0F30741062000F029FDC4F3A3
:1083D0000721072000F024FDE1B2BDE8104008208D
:1083E00000F01EBD504300200000000080844E407D
:1083F00070B50D46044600F015F824B1012C0DD1DE
:108400002946232006E0064890F87A00002805D186
:1084100029463220BDE8704000F002BD70BD00006A
:108420005043002010B504460120FFF7CFFE1A4943
:10843000000601D5012000E0002081F85D00C0B2F7
:10844000A04227D081F85D40012C0FD000F002FB44
:108450000120FFF7BBFE00F07F01012000F0E0FCEF
:108460000021402000F0DCFC30210EE000F0F2FAA8
:108470000120FFF7ABFE40F08001012000F0D0FCAE
:108480000021402000F0CCFC0021BDE8104041203C
:1084900000F0C6BC10BD00005043002010B5040021
:1084A00010D00020FFF772FF2046FFF765FF012084
:1084B000FFF78CFE00F0F8012143BDE810400120D9
:1084C00000F0AEBC0120FFF761FFF0E710B50446F5
:1084D0000120FFF7A7FF064880F8B4400CB1342113
:1084E00000E01221BDE81040392000F099BC0000E6
:1084F0005043002070B504460920FFF767FE06468A
:108500004D20FFF763FE054646F0F00001062BD52F
:10851000112C02DD45F0070502E005F0F8052D1DE0
:10852000E943490703D0022C0CDA02240DE0052CA4
:1085300001DA052402E0142C00DD142400F0F0011F
:10854000641F05E0112C00DD112400F0F001A41ED1
:1085500004F00F000143092000F062FC2946BDE849
:1085600070404D2000F05CBC4FF0FF318C4201DACE
:108570000C4602E00E2C00DD0E2400F0F001641C1D
:10858000E6E7000070B57B4C0546002694F85D00D8
:1085900010B1012824D124E014F87E6F4020FFF7A9
:1085A00015FE00F0030040F00C01402000F038FC04
:1085B0004120FFF70BFE40F0C101412000F030FCEC
:1085C0003520FFF703FE00F03F0020761E210D202E
:1085D00000F026FC0020A072E072E082A0827E3CC7
:1085E00088E094F8AD0001284FF0330027D0FFF762
:1085F000EDFD00F0BE013320491C00F011FC1D21EF
:108600003B2000F00DFCD4F89C0009284FF031000D
:108610007DD2FFF7DBFD00F07F01312000F000FC90
:108620000021302000F0FCFBD4F89C00092847D240
:10863000DFE800F00E161E262E3641414100FFF7FE
:10864000C5FD40F04101332000F0EAFB1921D7E7D6
:1086500048212F2000F0E4FB41F68261206E26E0E5
:1086600044212F2000F0DCFB42F6B401206E1EE016
:1086700044212F2000F0D4FB43F60451206E16E075
:1086800044212F2000F0CCFB45F25E11206E0EE05D
:1086900044212F2000F0C4FB47F61221206E06E093
:1086A00044212F2000F0BCFB206E4AF2C621084472
:1086B000FFF77AFE04E040215FF02F0000F0B0FBEE
:1086C00094F8AB0094F8AE60012833D01F2111203C
:1086D00000F0A6FB4020FFF779FD00F03F014020AD
:1086E00000F09EFB00210F2000F09AFB00210D20DE
:1086F00000F096FB4FF480711F48FAF7EDFE012061
:1087000084F85C0055B11B482946E83000E00BE0D6
:1087100000F05CFF1748E83000F05DFF94F85D0062
:1087200090B106B305201FE0FFF750FD40F0800137
:108730003120C3E71D21112000F072FB4020FFF71C
:1087400045FD00F03301CAE70520FFF7A7FE002E24
:108750000ED10A48D4F8841000F038FFBDE870400C
:10876000064800F038BF0620BDE87040FFF796BE0F
:1087700070BD0000504300205042002060440020A3
:108780002DE9F04F9B462DED028B81B014468A46B1
:108790008046DDF844900D9F0F9EFFF743FE380A98
:1087A000A24D0090B8F1000F06D0B8F1010F73D1BF
:1087B000BAF1020F71D9FEE745F86CAFAC600C98C6
:1087C0006860AE731098E87385F810901498687418
:1087D0001598A874AF812046FBF79FF8884648ECAF
:1087E000100B044653EC102B9FED910B51EC100B2A
:1087F000FBF713F89FED901B53EC112BFAF79BFF3F
:1088000041EC180B0E98FBF788F853EC182BFAF78D
:1088100092FF9FED8B1B53EC112BFAF78CFFFBF7AC
:10882000A8F848EC104B53EC102B9FED870BA86178
:1088300051EC100BFAF7F1FFFBF79BF884B2210A19
:10884000022000F0EDFAE1B2032000F0E9FA504610
:10885000FBF772FD0146122000F0E2FA0C98FBF7DC
:108860006BFD0146132000F0DBFA2520009900F093
:10887000D7FAF9B2262000F0D3FA0EB1109900E031
:10888000FF21322000F0CCFA3020FFF79FFC00F0EF
:108890006F001EB1002102E0C2E00DE0802108431C
:1088A00040EA0911302000F0BBFA3120FFF78EFCBE
:1088B00040F040013120A2E028460AF10708E0E933
:1088C00027840C2C80F809B04781067310994173F6
:1088D00080F80E901299C173139901741499417420
:1088E000159985F8AE1001D90C2402E0062C00D2AF
:1088F0000624B8F1070F03D0B8F1080F02D003E047
:108900000B2C47D00C2C45D05FF0000185F8A4104B
:108910001D20FFF75BFC4FEA081141EA4B00304392
:10892000C1B21D2000F07CFA1E20FFF74FFC00F0C2
:10893000080040EA04110E98032241EA890102EA84
:1089400010200143C9B21E2000F06AFA2620FFF76A
:108950003DFC00F0F70195F8A40041EAC000C1B267
:10896000262000F05DFA0E98C1B21F2000F058FAE0
:108970002020009900F054FAF9B2212000F050FABA
:108980001EB12220109900F04BFA95F8AB00012897
:1089900002D00EE00121B9E74420FFF717FC40F0B8
:1089A0008001442000F03CFA95F8AC10242000F03F
:1089B00037FAB8F1090F02D0032136200FE024491D
:1089C000286E88424FF002014FF0360003D900F0C4
:1089D00027FA642102E000F023FA7F213A2000F018
:1089E0001FFA062C4FF0310010D0FFF7EFFB00F01C
:1089F000F8013120C91C00F013FA0A21372001B018
:108A0000BDEC028BBDE8F04F00F00ABAFFF7DEFBC9
:108A100000F0F8013120491D00F002FA0C21EDE7C9
:108A200001B0BDEC028BBDE8F08F00005043002088
:108A3000000000000000F03F0000000000002040A7
:108A40000000000000408F400000000080847E4154
:108A500040DD4A1F10B5084800F0DEFD0648283802
:108A600000F0DAFD0020FFF719FD03490020E83986
:108A700081F85C0010BD00003844002010B50848A3
:108A800000F0CAFD0648283800F0C6FD0120FFF7B7
:108A900005FD03490020E83981F85C0010BD0000A5
:108AA0003844002010B50146254800F08FFD244CC5
:108AB000C03C94F85D0010B101282CD119E0402091
:108AC000FFF784FB00F0030040F01001402000F0AD
:108AD000A7F94120FFF77AFB00F03E01412000F0AA
